:10000000E2C00000FDC00000FBC00000F9C000001D
:10001000F7C00000F5C00000F3C00000F1C0000010
:10002000EFC00000EDC000000C94FE160C94CA173F
:100030000C943212E5C00000E3C00000E1C00000F3
:10004000DFC00000DDC00000DBC00000D9C0000040
:10005000D7C000000C94A912D3C00000D1C000008A
:10006000CFC00000CDC00000CBC00000C9C0000060
:10007000C7C00000C5C00000C3C00000C1C0000070
:10008000BFC00000BDC00000BBC00000B9C0000080
:10009000B7C00000B5C00000B3C00000B1C0000090
:1000A000AFC00000ADC00000ABC00000C774C97491
:1000B000CB74CD74D174D674DA74DC74DE74E074ED
:1000C000E274C874CA74CC74CE74D274D774DB74FE
:1000D000DD74DF74E174E97400000000C174CF7452
:1000E000D074D874D974C2740000000000000C03EE
:1000F0007300740065006E006F0000000E0369005D
:10010000460049004B004F005A0000000403090458
:1001100009025F00030100A0FA09040000010301C5
:100120000100092111010001224400070581030893
:100130000001080B01020202010009040100010292
:100140000201000524001001042402020524060116
:1001500002070582030800FF09040200020A0000EA
:1001600000070504021000050705830210000512B0
:10017000010002EF020108327300010001010200D8
:100180000105010906A101050719E029E715002568
:10019000019508750181029501750881010507190E
:1001A0000029FF150026FF00950675088100050847
:1001B0001901290515002501950575019102950183
:1001C00075039101C00011241FBECFEFDAE0DEBF3E
:1001D000CDBF11E0A0E0B1E0E6E4F7E302C0059096
:1001E0000D92A234B107D9F722E0A2E4B1E001C038
:1001F0001D92A530B207E1F70E94EC0E0C946E1B25
:10020000FFCE811114C0633090F44B3080F4E42FA2
:10021000F0E08BE0689FE00DF11D1124EE0FFF1F51
:10022000E455FF4F85919491282F822F089521E066
:1002300090E0FBCFE6CF089581E0089581E0089536
:10024000FBCF089581E0089581E0089581E008954D
:10025000FDCF089508950895FDCF08950895089558
:10026000A6E0B0E0E6E3F1E00C94F51A49835A8386
:100270009E833091490189819A81311117C03E8155
:10028000311589F0211579F0F7D4182F682F89815D
:100290009A81D1D469817A81812F0E94450C26965A
:1002A000E3E00C94111BD8D4182FF4CFE5D4698166
:1002B0007A81F3CFFC01262F4081518162817381C5
:1002C00084819581CDCFCF93DF93EC0161E0F2DFA4
:1002D000BE01B4DF811529F061E0CE01EBDFBE0184
:1002E000AFDFDF91CF9108950F931F93CF93DF93EB
:1002F000EC0160E0DFDF8C01BE01ADDFBE01C801B3
:10030000ABDFDF91CF911F910F91089521E030E095
:1003100002C0220F331F8A95E2F7C901C7C3CF93EA
:10032000C82F81E090E00C2E02C0880F991F0A941C
:10033000E2F70E94870A8C2FE9DFCF91089581E0D0
:10034000089581E00895FBCF0895CF93C82F5DD322
:100350008C2FF7DF8C2FF7DF8FEF94E32CE08150A9
:1003600090402040E1F700C00000CF91089581E067
:10037000ECDF0C94CD1280E0E8DF0C94DE120F93DA
:100380001F93CF93DF93EC018B015EDF811509F49E
:1003900046C0B801CE015CDF811509F440C0B80148
:1003A000CE010E94340F8115D1F1B801CE010E9417
:1003B000E9108115A1F1B801CE010E94B00F81159D
:1003C00071F1B801CE010E94890F811541F1B80188
:1003D000CE010E94460D811511F1F801858181152C
:1003E00081F0CA358CE7D80721F170F4C1308CE771
:1003F000D807E9F0C3308CE7D807B9F0C115DC475E
:1004000069F0C8011FDF0CC0CB358CE7D807A1F01D
:10041000CC35DC47B1F70E94490AF3CFA8DF80E072
:10042000DF91CF911F910F9108950E947F0AA3DF62
:10043000F6CF0E94500AE5CF0E94520AE2CFCF9336
:10044000DF93EC0161E036DFBE0199DFDF91CF91F0
:10045000089504DF0E940B1217C018D000DF0C941F
:100460000F1281E008950895CF93DF93C82FF9DF2D
:10047000D82F811511F08C2FF6DF8D2FDF91CF91C2
:1004800008950895F1CF089580E0FCCF0E942E11C9
:10049000F9CFCF930E942E11C82F809144018C1761
:1004A00071F0C09344010E949D12609345017093C6
:1004B000460180934701909348018C2FE3DFCF9151
:1004C0000895ADE0B0E0E7E6F2E00C94F41A488756
:1004D00059876A877B878C879D879111FED61F82FB
:1004E00026E0FE013896CE010196DC0101900D92C6
:1004F0002A95E1F72091E701182F092F22FF08C064
:10050000AED6811511F082E09ED790D681112FD7FB
:100510008D8181110CC029813A814B815C816D8173
:100520007E818F8102D62D96E4E00C94101B812FE2
:10053000902FC9DE8111EFCFF6CFFC01248121304D
:1005400019F480819181CBC30895CF93C82F811571
:1005500081F08450813A78F48C2F0E945E118115CD
:1005600021F08C2F0E94A01148D78C2F0E949A1145
:1005700044D7CF9108958C2F805E8830D0F781E0EA
:10058000C1FD84E0C0FD880FC2FD829587D6F0CF03
:10059000811539F0982F9450913A20F40E94A011BF
:1005A0002CC70895982F905E9830D8F7982F81E047
:1005B00091FD84E090FD880F92FD829575D6F0CF75
:1005C0001F93CF93DF93182FEB01BFDF209731F4F8
:1005D000812FDEDFDF91CF911F9108958FE99FE09A
:1005E0000197F1F700C000002197F0CF60E570E0BF
:1005F000893311F060E070E0E3CF811511F04ED641
:10060000FCC60895811511F04FD6F7C60895A0E0F5
:10061000B0E0EDE0F3E00C94F01A6C01D62FC72F98
:10062000FC01F580068102950F702DD6E82E81150C
:10063000E9F0EF2CF114D1F08C2F807F803461F041
:100640008D2F805E883078F18C2F807E803221F46F
:10065000D23048F1011539F18091E70182FF23C0C2
:1006600082E0F1D610D691E08927E82E9C2F929552
:100670009F70983009F4B9C0C0F4923030F1925FA5
:100680009F70923008F44BC0E11409F4DEC0E3D54A
:1006900080FDDBC0F6011582D8D538D2C60192D1D3
:1006A000D4D542D2D2C0E12CE1CF993009F40FC1A8
:1006B0009A5F9F70923040F7D23F09F015C18C2F9E
:1006C0008F71F1100FC122D2BDC01C2F1F70C0311D
:1006D00010F01295107FF11481F0111549F08D2F53
:1006E000805E883010F0D11105C0812FD7D585D616
:1006F0008D2F32C0812FE3D5FACF8D2F49DF111511
:1007000009F4C2CF8D2F805E883010F0D11103C064
:10071000812FCAD502C0812FD8D56FD6B5CF1C2F57
:100720001F70C07FC03211F01295107FD13040F0A1
:1007300009F43FC0F11409F448C00115C9F0D8CF3D
:100740008091E70182FD10C0F11441F0111519F0FC
:10075000812FA4D552D680E0F8DE96CF80E018DF56
:10076000111509F491CFD4CFF11499F0013018F498
:10077000812F43DF89CF19F4812FCED585CF053066
:1007800009F082CF812F39DF812FDCD5812FABD5C6
:100790007BCF013038F4812F35DF812FD3D5812FE6
:1007A000ADD572CF09F070CF76D5812309F46CCF27
:1007B000F2CFF11421F0063008F066CFD9CF053022
:1007C00008F062CF812F1EDF5FCF0115D9F3D93337
:1007D00049F48FEF97EE23E0815090402040E1F7FD
:1007E00000C000008D2FD4DE4FCF8C2F8370C1F559
:1007F000F11028C04D2F429546954770440F440F85
:100800002D2F2F7030E0042E02C0220F331F0A94C8
:10081000E2F780E090E0D4FF09C08FE090E002C0F2
:10082000880F991F4A95E2F780959095C695C695D1
:10083000C370822B932BC23079F0C33079F0C13072
:1008400049F03DD10E942E111DDECDB7DEB7E8E0A4
:100850000C940C1B2DD1F6CF39D1F4CF27D1F2CF88
:10086000F11459F1C0FFEECF4D2F429546954770D8
:10087000440F440F2D2F2F7030E0042E02C0220FA2
:10088000331F0A94E2F780E090E0D4FF09C08FE0C4
:1008900090E002C0880F991F4A95E2F780959095E5
:1008A000C695C695C370822B932BC23061F0C330BE
:1008B00061F0C13031F05DD1C5CF823008F4C2CFD4
:1008C000D3CF50D1BFCF5CD1BDCF0DD1BBCFCF7077
:1008D000F11429F08C2F1AD18D2F8FDEB3CF8D2FED
:1008E00091DE8C2F21D1AECF68F4D03FC1F0D13F43
:1008F00089F0F11409F442C0011509F43CC08D2FB0
:1009000024DEA0CFD33FB1F0D43F99F78091E70127
:1009100082FD18C08C2F8F71F11421F3D4CEF11405
:1009200039F0053008F08ECF8C2F8F710DD18ACF22
:100930000630F8CFF11421F08C2F8F71DED082CFEA
:10094000D9D080CFF11479F086D4843021F473D5D6
:100950008C2F8F71C7CF63E0053008F073CF8C2FD9
:100960008F7150D56FCF053018F065D564E0F7CFA3
:1009700081E069D567CF8C2F8F71A5CE011541F32A
:10098000D93349F48FEF97EE23E081509040204017
:10099000E1F700C000008D2FFBDD54CF0F931F93B4
:1009A000CF93DF93EC01688179818D81A1D18C0196
:1009B000EED07BD0B801CE012ADEDF91CF911F911E
:1009C0000F910895CF93DF93EC018C81811581F015
:1009D000CE0135DD81110FC056D4811549F08D81CE
:1009E000811531F08091E70182FF02C082E02BD5B2
:1009F000DF91CF910895CE01D1DFCE0175DCF8CF24
:100A00006CD4FBC40E94A611FBCF56D4FBCF282F79
:100A100092959F70963099F060F4925F9F7092303B
:100A200030F4203FB1F038F481E0283E38F080E027
:100A300008959A5FF3CF81E0243FC9F7089591E0CC
:100A4000813F09F090E081E0283E08F080E0892BAA
:100A5000089581E00895FC012481211521F0808111
:100A600091813DD1D4CF80E00895A6E0B0E0EBE3E2
:100A7000F5E00C94F61A2696E2E00C94121BA7E01F
:100A8000B0E0E5E4F5E00C94F61A2796E2E00C9469
:100A9000121B0895FECF0895FDCF0895FADFFCDF05
:100AA000809360019093610108950895F7CF0895B0
:100AB0002091600130916101822B932BEFCF209127
:100AC00060013091610182239323E8CF209160017E
:100AD0003091610182279327E1CFDBCF0895FDCFCD
:100AE0000895D7CF0895FDDFFADF80935E019093DC
:100AF0005F01089580E090E0F6CF21E030E002C091
:100B0000220F331F8A95E2F7C901EDCF21E030E0D3
:100B100002C0220F331F8A95E2F780915E01909107
:100B20005F01822B932BDFCF21E030E002C0220F48
:100B3000331F8A95E2F72095309580915E01909160
:100B40005F0182239323CFCF21E030E002C0220F48
:100B5000331F8A95E2F780915E0190915F018227B1
:100B60009327C1CF20915E0130915F01822B932B9F
:100B7000BACF20915E0130915F0182239323B3CFDE
:100B800020915E0130915F0182279327ACCF0895B9
:100B9000CF93C1E061FDC4E060FDCC0F62FDC29562
:100BA00093E0769567959A95E1F7660F771F660F44
:100BB000771F460F571FFA0140E050E090E0619127
:100BC000DF019C01042E02C0369527950A94E2F7B6
:100BD0002695220B26272C2326272E934F5F5F4F27
:100BE0004430510561F7CF910895A82FA77023E0F5
:100BF000969587952A95E1F7880F991F880F991F79
:100C0000680F791FFB0140E050E080E0219130E067
:100C10000A2E02C0369527950A94E2F72170042E19
:100C200001C0220F0A94EAF7822B4F5F5F4F4430D6
:100C3000510561F70895262F933068F48B3058F4EE
:100C4000682F70E08BE0989F600D711D11244AE4BD
:100C500051E0822F9DCF0895292F933058F48B3087
:100C600048F490E06AE471E03BE0239F800D911D21
:100C70001124BBCF80E00895CF92DF92FF920F93B3
:100C80001F93CF93DF936C0100915E0110915F0180
:100C90008091600190916101082B192BCFE0D0E089
:100CA00081E090E00C2E02C0880F991F0A94E2F7B1
:100CB00080239123892B61F4219790F7F12C8F2DBC
:100CC000DF91CF911F910F91FF90DF90CF9008950A
:100CD000FC2EB6018C2FE4D5019771F3F0CFCF93A2
:100CE000DF93EC01C9DFBE01DBD5DF91CF91089521
:100CF0000F931F93CF938B0190914901911531F080
:100D0000CB01EDDFCF911F910F910895811551F027
:100D1000CB01B2DFC82F682FC8018DDFB8018C2F3F
:100D2000BFD5F0CFCB0198DFC82FF8CF0F931F931B
:100D30000091620180916301801303C01F910F91A4
:100D4000089587E0089FF0011124EC59FE4F20819F
:100D500031814281538164817581868190DE0F5F8C
:100D60001F4F0770E7CF20919C0130919D0140916A
:100D70009E0150919F016091A0017091A10180910D
:100D8000A2017DCE8091A201803170F48091A101F9
:100D9000811551F0E09162012091630130919D0134
:100DA00040919C012E1301C00895BF0187E0E89F88
:100DB000F0011124DF01AC59BE4F14968C911497A9
:100DC000811549F111968C911197831324C08C9150
:100DD000841321C015968C91159781111CC0129611
:100DE0008D919D91A0919E01B0919F018A1B9B0BBB
:100DF000883C910580F48091A2018F70806180937E
:100E0000A201E659FE4F80818F70806180838CE95A
:100E100091E0D8DD8BCF6F5F7F4FFB01E770C2CFD2
:100E2000E091620190916301E91302C080E00895AE
:100E30009F0157E0E59FF0011124EC59FE4F5181CD
:100E4000561306C05081581303C05581541305C072
:100E50002F5F3F4FF901E770E7CF81E008958F9250
:100E60009F92AF92BF92DF92EF92FF920F931F93E8
:100E7000CF93DF93CDB7DEB72D970FB6F894DEBFD3
:100E80000FBECDBF8C0186E0F801DE0118960190FF
:100E90000D928A95E1F7F801F58084819CE9892E0D
:100EA00091E0992E9091A001911117C0811509F43C
:100EB000EFC0F11409F42EC1C801CDDD811509F48C
:100EC00029C187E0F801D40101900D928A95E1F7DC
:100ED000C40133DB57DF47DFDBC0E080A280B38093
:100EE000D090A10120919E0130919F01A501421B4C
:100EF000530BD11409F4CFC0483C510508F09EC0F3
:100F0000811509F4C5C090919D0191808091A20145
:100F1000803108F065C0991226C090919C019E1105
:100F200022C0F11057C08F7080618093A2011BDF37
:100F30008CE991E047DD8091A201F8018683F12CD4
:100F40008F2D2D960FB6F894DEBF0FBECDBFDF916B
:100F5000CF911F910F91FF90EF90DF90BF90AF90D6
:100F60009F908F900895F11035C040E0692D8E2D2F
:100F700057DF40E0692D8E2D53DFF82E8111DFCF32
:100F800088859985ACDE292F22952F70903450F4F6
:100F90009F70223078F0911591F0F8019681903190
:100FA00070F4CECF2A5F2F70223070F0C8010ADDB6
:100FB000FD2CC6CF911519F0811509F4C1CF805EC3
:100FC000883008F4BDCFF2CF803F08F4B9CF815FFD
:100FD0008330F7CF8091A20181608093A201AFCFCF
:100FE000991207C090919C019E1103C0F11409F45D
:100FF00073C0C80130DD811509F48CC0F11409F407
:1010000089C08091A201803280F020919C013091B2
:101010009D0129833A83AB82BC829091A0019D837C
:101020001E828F83CE010196CDDC87E0F801ACE90A
:10103000B1E001900D928A95E1F74CCF9091A20119
:10104000903188F4488559856A857B858C859D8596
:101050000CDD8CE991E0B6DCF40187E011928A9511
:10106000E9F781DE6CCF811599F020919D01818196
:101070002813BFCF80919C018E11BBCFF110B9CF47
:101080009683C8019FDCF40187E011928A95E9F705
:10109000FF24F39455CF483C510508F03EC081151C
:1010A000B9F3F114B9F190919D018181981329C090
:1010B00080919C018E1125C08091A20180FD18C0F5
:1010C0008031B0F08683807F803F39F08681982F11
:1010D000907F905F8F70892B8683C80173DC87E0D7
:1010E000F801ACE9B1E001900D928A95E1F7F3CEF9
:1010F00087E0F801ACE9B1E001900D928A95E1F743
:10110000C7CFC801A8DC811190CF8091A201816076
:101110008093A201C80156DCBBCF488559856A85FA
:101120007B858C859D85A1DC97CFAEE0B0E0EBE9B7
:10113000F8E00C94F51A288739874A875B876C8713
:101140007D878E87CE0108968ADE6C85811599F0A1
:10115000611539F0288539854A855B857D858E85C1
:101160008EDC809162019091630189133DC02E96BF
:10117000E3E00C94111B87E09E01285F3F4FF901CB
:1011800027503109D90101900D928A95E1F7611537
:1011900041F3A09163018A2F90E08395877090E0DE
:1011A000AC01209162012417150691F097E09A9FF7
:1011B000D0011124AC59BE4F9E012F5F3F4FF90162
:1011C00001900D929A95E1F740936301AFDDC9CF8D
:1011D0001CDC1092630110926201ECE9F1E087E0FF
:1011E00011928A95E9F7BDCF17E0189FC00111242D
:1011F0008C599E4F34DE811509F4B9CFE09162011C
:101200001E9FF0011124EC59FE4F20813181428153
:10121000538164817581868132DC80916201909175
:10122000630101968770809362019BCF0E949112A7
:101230002091AE013091AF01821B930B9C0181E0A4
:101240002838334108F480E008958091AD018695F7
:101250008695869508958091AD01877008950E94C6
:1012600091122091AB013091AC01821B930B883815
:10127000934138F08091AD01002482FF0394802DCA
:10128000089580E008959091AD01977081E09111EB
:1012900001C080E008958091BB0108959091BB0149
:1012A000982B9093BB0108958095982F8091BB0156
:1012B00089238093BB0108951092BB0108959091FA
:1012C000BA01982B9093BA0108958095982F809138
:1012D000BA0189238093BA0108951092BA01089542
:1012E0000895FECF08959091B001292F2823281743
:1012F00021F0892B8093B001F4CF08959091B00133
:10130000292F282329F0809589238093B001E9CFE4
:1013100008950895FECF0895CF93C82F8091B1010D
:101320008C238C1769F00E9491128093AE019093E8
:10133000AF018091B1018C2B8093B1018C2FEADF3A
:10134000CF9108959091B101292F282379F08095AC
:1013500089238093B10190E081110E9491128093C2
:10136000AE019093AF018091B101D4CF08958091E7
:10137000B101811541F01092B1011092AE011092AD
:10138000AF0180E0C7CF08950F931F93CF93DF93F2
:1013900080910001909101018C01C091BB0180916D
:1013A000BA01C82B8091B101811549F03FDF81114D
:1013B000DEDF8091B101C82B6DD78111D8DFF80134
:1013C000C083C0910001D091010148E050E063EA80
:1013D00071E0CE010E941D1B892B51F088E0FE01B7
:1013E000A3EAB1E001900D928A95E1F7CE0145D7CD
:1013F000DF91CF911F910F910895C6CF0895089561
:10140000FECF08959091E70192FF14C0982F990F95
:10141000990F990F962B9093AD0178DB0E94911252
:101420008093AB019093AC018091AD018695869538
:101430008695E6CF6BCB1092AD011092AB01109266
:10144000AC0180E0DDCF9091AD0180958923809340
:10145000AD01282F277059F4891749F09091E701C1
:1014600092FF05C08695869586955EDBE4CF08954C
:101470009091E70192FB222720F9281749F080FB81
:1014800092F99093E70186EE91E045D082E0DBCFC0
:1014900008958091E701002482FF0394802DE8CF16
:1014A00081E0E6CF80E0E4CF80E090E0BC0152C371
:1014B00080E090E0BC0148D3F7CFA3E0B0E0E3E6E2
:1014C000FAE00C94F61AF4D2FFD21B82CE010396F6
:1014D00012D381E090E0809360011092610117D3F4
:1014E000198284E18A83CE01019622D380E027D33A
:1014F000DFDF2396E2E00C94121BDFCF0895EAC2EF
:101500000895D7C20895ECC20895FBC20895FFC2A2
:10151000089502C308950CC3089522C30895A6E058
:10152000B0E0E5E9FAE00C94F41AFBD78C01809165
:10153000BC019091BD018017910771F019821A8248
:10154000F0D7BC0149815A8180E090E00E9461029D
:101550000093BC011093BD012696E4E00C94101B8F
:10156000ECD76093C8017093C9018093CA0190932E
:10157000CB016093C4017093C5018093C601909321
:10158000C701089508950895FDCF08950895FEDFD9
:10159000FBCF0895FECF08950895FEDFFBCF84E4CE
:1015A0009DE025D4F0DFF3CF81E0089581E0089538
:1015B000FBCF0895089508950895FCDFFCDFFCCF6C
:1015C000A0DF811101C099DF8CEC91E09CDF86EEF9
:1015D00091E09FDF9ADF6ADA80915E0190915F016E
:1015E0007ECA96D771D3ECDF0E9441020E94131489
:1015F000D4CFA6E0B0E0EFEFFAE00C94EB1AD6DF20
:10160000811107C08CDF0E9449022696EDE00C9400
:10161000071B6AD32EEB822E21E0922E740110E07C
:10162000F701C080D180812FA6D21F5F133009F44B
:1016300047C022E0E20EF11CC816D90689F380915A
:10164000CC0181FDA1D2B4DF782E10E0812F93D29E
:101650007C01F401A190B1904F018A159B0559F1CD
:10166000A826BF2400E091E0C92ED12CC5018C2111
:101670009D21892BC1F07114B1F009831A8351D7D0
:101680008B839C8381E08D8321E0C7018C219D2188
:10169000892B09F420E049815A816B817C818D81FD
:1016A000922F0E9461020F5FCC0CDD1C0B30F1F613
:1016B000F401F292E2921F5F133041F651DFA3CFA3
:1016C000C816D90609F0BBCF9DCF0F931F93CF93B8
:1016D000DF93E8D0EC01D23508F040C0D03508F0F7
:1016E000B3C0C83ED105F0F4C03ED10560F4C53AA0
:1016F000D10578F4C430D10530F481E0219709F0A8
:1017000080E0C82FD0E0CE01DF91CF911F910F91E3
:101710000895CE018D5C9109D0654397A0F3C0E098
:10172000D0E0F1CFD03490F4D03208F0A0C0CE0198
:1017300091509F31A0F78D2F58D1082F8C2F90E01A
:10174000B1D0D02FDF71C82FD92BDDCF8C2F90E0F7
:10175000A9D0DF70C82FD92BD06AD5CFC03882E589
:10176000D807B8F5C03682E5D80708F051C0C034B4
:1017700082E5D807C8F4C03282E5D80708F042C035
:101780008C2F8695869520E2829FC0011124C3701C
:1017900021E030E002C0220F331FCA95E2F7E901D1
:1017A000C82BD92BDD68AFCF8C2F86958695877097
:1017B00020E2829FC0011124C37021E030E002C00A
:1017C000220F331FCA95E2F7E901C82BD92BDC6839
:1017D0009ACFC03C82E5D80750F48C2F8F71C03A65
:1017E000D24558F5982F84EF906AEC018CCFCE014A
:1017F000805C9245809708F092CFDC2FDF71C0EFBC
:10180000D06A81CF8C2F8F71D82FC1EFD06A7BCF58
:101810008C2F86958695877020E2829FC0011124C7
:10182000C37021E030E002C0220F331FCA95E2F7F7
:10183000E901C82BD92BDA6866CFD7D0982F80E082
:101840009F71EC01D0625FCF8C2F8F71CED053E0AF
:10185000CC0FDD1F5A95E1F7DF70282F84FF04C0FD
:1018600090E1899F90011124C22FD0694CCF8D2F18
:101870008F71BBD0082F8C2F90E014D0302F3F7188
:10188000282F392B3062E9013ECF462F733028F4E0
:101890006B3018F4672F0C941A0180E090E00895E3
:1018A000F4DF13CF803E9105D1F1C8F48133910567
:1018B00009F481C048F48932910509F471C08A3273
:1018C000910509F47FC0089589339105E1F08238CC
:1018D0009105C9F08533910509F45DC00895843EF2
:1018E0009105D1F148F4823E910531F1833E910595
:1018F00041F181EE90E00895863E9105C1F1873E69
:101900009105F1F108952091E601237009F064C07A
:101910002091E70123FF14C089E290E0089520910F
:10192000E60120FD45C03091E70130FF09C024FDEC
:1019300024C083EE90E008952091E60122FDF7CFC8
:1019400008952091E60122FD44C03091E70130FD69
:1019500043C024FFF5CF11C02091E70121FFF0CF54
:101960008091E60184FD09C087EE90E00895209102
:10197000E60123FFE5CF24FFF7CF80E090E0089554
:101980002091E60123FD2BC03091E70131FFE1CF2B
:1019900084EE90E008952091E60125FFD1CFBCCFE1
:1019A0002091E60125FD1EC02091E70123FFC8CF4D
:1019B00089E390E008952091E60126FFC1CF8AE2F5
:1019C00090E008952091E60126FFBACF81E390E0F0
:1019D000089582EE90E0089580EE90E0089586EEFE
:1019E00090E0089585E390E008959091E60192FFDC
:1019F00010C041E0282F2471243009F040E031E08C
:101A0000282F2871283009F030E0431711F02CE01E
:101A1000822793FF10C041E0282F2471243109F060
:101A200040E031E0282F2871283109F030E04317D9
:101A300011F02CE082273091E70130FF10C051E017
:101A4000282F2171213009F050E041E0282F287122
:101A5000283009F040E0541711F029E0822731FFC7
:101A600010C041E0282F2171213109F040E031E020
:101A7000282F2871283109F030E0431711F029E0B0
:101A8000822794FD877E089580E00895CF939C017E
:101A9000205E3245C1E02032310538F4FB01C581BA
:101AA000C11103C08F710E948F018C2FCF910895B7
:101AB000089580E090E00E943B1B9C0181E0233E62
:101AC0003E4F09F080E0089563EE7EEF80E090E005
:101AD0000C945A1B6FEF7FEF80E090E00C945A1B40
:101AE000CF93DF93EC0182E090E00E94331B888368
:101AF000DF91CF910895FC01608182E090E00C9429
:101B0000401B83E090E00E94331B90E00895682F13
:101B100083E090E00C94401BCF93DF93EC0184E0D2
:101B200090E00E943B1B88839983DF91CF910895B9
:101B3000FC016081718184E090E00C945A1B682F55
:101B40008DE090E00C94401BAB01BC018FE090E075
:101B50000C94521BAB01BC0183E190E00C94521B2E
:101B6000682F8EE090E00C94401B0895FECF0895FE
:101B70000895FECF0895E82FF0E0EE0FFF1FE25129
:101B8000FE4F808191810895089580EA8A95F1F74A
:101B9000089500C00895F9CF0895F894E82FE295CC
:101BA000EF70F0E041A18F7021E001C0220F8A9513
:101BB000EAF7922F9095942391A392A1822F892BDB
:101BC00082A378940895CF93DF9384E3E6DF85E3DF
:101BD000E4DF86ECE2DFC3E3D1E089918F3F09F0D7
:101BE000DCDF81E0CE33D807C1F7DF91CF910895D4
:101BF000AF92BF92DF92EF92FF920F931F93CF931A
:101C0000DF935C01D62EC62FD0E08E01025C1E4F02
:101C1000F80180818F3F09F44BC0F894E82FE295DA
:101C2000EF70F0E091A18F7021E001C0220F8A9542
:101C3000EAF7892F822B81A382A12095282322A352
:101C40007894A7DFE3E3F1E021E030E0E12CF12C30
:101C500041914F3F79F0A42FA295AF70A05EB0E004
:101C60008C9190E04F7002C0959587954A95E2F768
:101C700080FF28C080E090E0E82AF92A220F331F75
:101C800081E0EE33F80721F7F80180818F3F09F0FA
:101C900084DF61E0E114F10409F460E08D2D7BDF65
:101CA000CC0FDD1FC5018C0F9D1FEC01E882F9826E
:101CB000DF91CF911F910F91FF90EF90DF90BF9038
:101CC000AF900895C901D8CF7EDFEEEEF1E086E057
:101CD00011928A95E9F7E8EEF1E086E011928A9593
:101CE000E9F783E03DD042CFA6E0B0E0EAE7FEE0CE
:101CF0000C94F31AFE013196DF0186E01D928A955D
:101D0000E9F710E00E2FFF2E612F802F9F2D70DF3F
:101D1000812F8F5F182F8330B9F746E050E0602F96
:101D20007F2D88EE91E00E941D1B21E0892B71F42C
:101D300020E043E06EEE71E088EE91E012D0182FC3
:101D400018DF812F2696E5E00C940F1B86E0E02F2C
:101D5000FF2DA8EEB1E001900D928A95E1F7E9CF51
:101D60000895A0E0B0E0E7EBFEE00C94F01A7C01EF
:101D70006B01042FC22F211571F081E08093CF01F8
:101D8000D0D38093CD019093CE0180E0CDB7DEB764
:101D9000E8E00C940C1BD091CF01D115B1F38091E8
:101DA000CD019091CE014ED3059778F310E0000F4E
:101DB000111FA801B701C6010E941D1B892B31F01C
:101DC000A801B701C6010E942A1BCD2F1092CF0196
:101DD0008C2FDCCF0ECC08953ED37BD5E0DB91D5A4
:101DE00000DC98D59AD5F6DFAED5E7DBFBCF809344
:101DF0004201909343010895CF93DF938091D101E5
:101E000080688093D101C1EDD1E0899126D581E030
:101E1000C73DD807D1F7DF91CF910895482F67E0EC
:101E20000E94D41A282F30E0F901EF52FE4FC90169
:101E300053E0880F991F5A95E1F7281B390B240F9F
:101E4000311D86E090E0821B21E001C0220F8A95BF
:101E5000EAF78081822B808380E0089581E00895F5
:101E600081E0089581E00895EF92FF920F931F9310
:101E7000CF93DF93EC017B018C01005C14470034AD
:101E8000110508F044C0FB018481811509F43FC0AD
:101E9000CE01E8DF8115A9F00A32110590F4009116
:101EA000D001F7018581811591F00F5F0093D0017A
:101EB0008C2F805CB3DF21ED31E040E0B701CE0133
:101EC000CFDF80E0CDB7DEB7E6E00C940E1B01500B
:101ED0000093D00121ED31E040E0B701CE01C0DF39
:101EE000811579F38091D00118165CF31092D0011E
:101EF00061ED71E080E0B2DF811107C0E1EDF1E05A
:101F000086E011928A95E9F7DCCF76DFF7CF81E0A2
:101F1000D9CFCF93DF93EB0186319C47F9F4BBD93E
:101F20009D81911591F08A7A91E0811101C090E034
:101F30009093D701811539F085E3FCD15EDA80E01A
:101F4000DF91CF91089589E2F8CF8091D701811573
:101F500019F085E3F5D1F2CF89E2FCCF81E0F0CF33
:101F6000CF93DF93EC01FB018581811509F4C8C093
:101F70009E0130572332310508F0A8C086EE91E06B
:101F8000C8DAFE01E150F047E232F10520F4E059F1
:101F9000F44E0C94E01A8091E60181608093E60192
:101FA0008FC08091E70188608093E70189C08091AC
:101FB000E6018260F3CF8091E6018460EFCF8091EB
:101FC000E6018860EBCF8091E7018160EDCF8091E1
:101FD000E7018260E9CF8091E6018061DFCF8091E7
:101FE000E6018062DBCF8091E6018064D7CF0E945A
:101FF00005058091E6018068D1CF8091E6018C6073
:10200000CDCF8091E7018360CFCF8091E6018E7FB5
:10201000C5CF8091E701877FC7CF8091E6018D7F93
:10202000BDCF8091E6018B7FB9CF8091E601877F9C
:10203000B5CF8091E7018E7FB7CF8091E7018D7F8B
:10204000B3CF8091E6018F7EA9CF8091E6018F7D8D
:10205000A5CF8091E6018F7BA1CF0E9405058091DD
:10206000E6018F779BCF8091E601837F97CF8091A8
:10207000E7018C7F99CF9091E601892F8B7F92FFAA
:102080008460877F92FF886089CF8091E701982FD5
:10209000909590FB80F990FB81F986CF9091E601B5
:1020A000892F8F7B96FF806479CF0E9405059091E0
:1020B000E601892F97FB87F9805870CF81E02DDAF0
:1020C00086EE91E028DA0E94050580E0DF91CF914D
:1020D000089580E0F4CF9091E601892F8F7E94FFE0
:1020E00080615CCF9091E601892F8E7F90FF8160A7
:1020F00055CF9091E701892F877F93FF886054CF58
:1021000081E0E4CF0F931F93CF93DF93C42FD22F9F
:10211000FC0185818115C9F04093DA0102D28093D8
:10212000D8019093D9018C2F805E883048F481E0EB
:10213000C1FD84E0C0FD880FC2FD82950E94FD02B2
:10214000DF91CF911F910F9108951091DA0114132F
:1021500033C08091D8019091D90174D1883C910508
:1021600058F5CD2FC05E1D17C1F0812F805E8830DD
:1021700048F481E011FD84E010FD880F12FD829586
:102180000E940203C83048F481E0D1FD84E0D0FD14
:10219000880FD2FD82950E94FD02802F0E94F602D8
:1021A00081E0D1FD84E0D0FD880FD2FD8295C8305A
:1021B00038F60E940203C4CF8C2F805E883008F06E
:1021C000BFCF81E0C1FD84E0C0FD880FC2FD8295D4
:1021D000F0CF0F93FC01CB01E851FC47E730F1054C
:1021E00088F5EE56F44E0C94E01A06E221EE41EE2C
:1021F0006AE17CE787DF80E00F91089507E225EE32
:1022000045EE6BE17CE7F6CF06E221EE40EE68E1B9
:102210007CE7F0CF07E225EE44EE69E17CE7EACF08
:1022200006E221EE42EE6CE17CE7E4CF07E225EE28
:1022300046EE6DE17CE7DECF08E221E045EE6EE19F
:102240007CE7D8CFFB01858181111092DA0181E012
:10225000D3CF8093DB019093DC010895E091DB0103
:10226000F091DC01309739F00190F081E02D30974A
:1022700011F00995089580E00895E091DB01F09157
:10228000DC01309731F00280F381E02D309709F0C6
:102290000995089540910001509101019A012E5F26
:1022A0003F4F485F5F4F80E0F90190812F5F3F4FC4
:1022B00091118F5F42175307B9F70895811591F077
:1022C0002091000130910101F9013296285F3F4FC2
:1022D0009081981731F03196E217F307C9F780E043
:1022E000089581E008959C01FC01329680E09FEF03
:1022F0004081461759F031969F3F19F4411101C0B2
:10230000982F8F5F8630A1F79F3F09F40895290F1A
:10231000311D97FD3A95F90162830895FC013296CB
:1023200008962191261302C0DF011E92E817F907D3
:10233000C1F70895682F8091000190910101D3CFDA
:10234000682F8091000190910101E8CFE091000198
:10235000F0910101329686E011928A95E9F708958D
:102360000895FECF08958F5F80930501609102016B
:10237000709103018091040190910501F2CF83E0F7
:102380008093050160910201709103018091040125
:1023900090910501E6CFE7CF089581E08093050194
:1023A00060910201709103018091040190910501F7
:1023B000D8CFF3CF089591E0811101C090E09093C0
:1023C00004016091020170910301809104019091D8
:1023D0000501C7CF809104010895809303016091A6
:1023E0000201709103018091040190910501B9CF20
:1023F0008091030108958093020160910201709120
:1024000003018091040190910501ABCF80910201FD
:10241000089508950895FECF089508950895F9CF79
:102420000895CF93FADF60DCF9DFC0E08C2FA3DBE7
:10243000892B31F4CF5FC330C9F780E0CF91089585
:1024400081E0FCCFCF93DF93EC016BD08C1B9D0B15
:10245000DF91CF91089585B7806885BF85B7806883
:1024600085BF08951F921FB61F9211248F939F93CB
:10247000AF93BF938091DD01811113C08091F4016E
:102480009091F501A091F601B091F7014196A11D3F
:10249000B11D8093F4019093F501A093F601B093E0
:1024A000F701BF91AF919F918F911F901FBE1F9019
:1024B00018958091FC01843031F10E94290210921C
:1024C000DD0188E190E020E40FB6F894A8958093B0
:1024D00060000FBE2093600083B7817F846083BF5C
:1024E00083B7816083BF7894889583B78E7F83BFDD
:1024F0000FB6F894A8958091600088618093600081
:10250000109260000FBE08950E9405050C942D02E4
:1025100082E084BD93E095BD9AEF97BD80936E00F5
:1025200008952FB7F8948091F4019091F501A0914E
:10253000F601B091F7012FBF08952FB7F89460917D
:10254000F4017091F5018091F6019091F7012FBF90
:10255000089578941F921FB61F9211248F939F9312
:10256000AF93BF938091F4019091F501A091F60192
:10257000B091F7010196A11DB11D8093F4019093D4
:10258000F501A093F601B093F701BF91AF919F9130
:102590008F911F901FBE1F90189587E797E7809334
:1025A00000089093010888E19AE00FB6F894A89586
:1025B000809360000FBE90936000FFCF88E19AE0A7
:1025C0000FB6F894A895809360000FBE90936000BA
:1025D000FFCF0895089508959B01BA019091FC01E1
:1025E0009430D9F48F708093E9009FEF8091E800D8
:1025F00085FD06C085ED8A95F1F700009150B1F791
:102600008091E80085FF09C040E050E0C90102D296
:102610008091E8008E778093E8000895CF93DF9350
:10262000EC01D8DE48E050E0BE0181E0D5DF88E073
:10263000FE01AEEDB1E001900D928A95E1F7DF91D8
:10264000CF9108958091FB01811107C06AD3BAD35D
:102650008091E20084608093E20008951092FB0173
:1026600008959BDE81E0A7CE6091F80181E06111C1
:1026700001C080E084CE9091FC0181E0943009F0AB
:1026800080E06091F80187CE42E061EC81E0C5D244
:1026900042E061EC82E0C1D242E160E884E0BDD278
:1026A00042E161E883E0B9D29091FC0181E094308D
:1026B00009F080E06091F80156CE8091FE018930EA
:1026C00009F445C058F4823009F49DC0833009F400
:1026D0006FC08130F1F086E091E0CAC68A3009F41B
:1026E00083C08B30C1F78091FD018132A1F78091C9
:1026F000010290910202892B71F78091E800877F97
:102700008093E800BED28091FF0155DE0E9405054E
:10271000E2CF8091FD01813AF1F68091E800877F58
:102720008093E8008091010290910202892B59F078
:1027300060E080E090E070E0B9D18091E8008B77B4
:102740008093E800C8CF68E08EED91E0F4CF8091EF
:10275000FD01813209F0BFCF809101029091020208
:10276000892B09F0B8CF8091E800877F8093E8003B
:102770008091E80082FF17C02091F3008091F20061
:10278000922F029731F48091F100813011F0863060
:1027900019F48091F10021DE8091E8008B7780931D
:1027A000E8006FD298CF8091FC018111E1CF0895AC
:1027B0008091FD01813A09F08ECF809101029091C4
:1027C0000202892B09F087CF8091E800877F8093F0
:1027D000E8008091E80080FFFCCFFCDD8093F100F1
:1027E0008091E8008E77DBCF8091FD01813209F086
:1027F00072CF8091E800877F8093E80042D2809179
:102800000002F9DD68CF8091FD01813A09F063CFC4
:102810008091E800877F8093E8008091E80080FF46
:10282000FCCFF4DDDBCF82E0809318011092190118
:1028300086E091E0E4C50895CF93DF9386E091E0D0
:1028400082D5EC01209719F4DF91CF91089586E0AD
:1028500091E0A3D5F0DF2197F5CFCF939091E900D8
:10286000C091EC00209116013091170120FF15C096
:102870009F70C0FBCC27C7F9C92B909107019F70AF
:102880009093E9009091EB0090FF04C09091EE00CE
:1028900097FD05C0CF70C093E900CF9108959FEFD9
:1028A0002091E80025FD06C025ED2A95F1F70000EE
:1028B0009150B1F78093F10086E091E000D58091CE
:1028C000E80080FFE7CF8091E8008E778093E800F2
:1028D000E1CF84B7877F84BF0FB6F894A895809125
:1028E0006000886180936000109260000FBE80E8F5
:1028F00090E00FB6F89480936100909361000FBE52
:1029000058CD0FD25FD2E2EEF0E080818460808308
:102910007894BCC481E291E09CCC8091FC0185302C
:1029200029F48091FC01853011F0EECD0895C1DDD0
:1029300078DD8115B1F38091FA01811591F354D0BE
:102940000E940505EECF78DF86E091E0E6C49A01AB
:10295000409103025091040200C0492F50E04330DF
:102960005105C9F070F441305105C9F142305105AB
:1029700071F48FE590E040E151E0F901408351832B
:10298000089541325105E9F04232510509F180E0E4
:1029900090E040E0F2CF482F50E0813061F04230CB
:1029A000510561F0ECE0F1E04115510581F78491AA
:1029B00090E0AF01E2CFECEFF0E0F9CFEEEEF0E027
:1029C000F6CF672B21F789E090E042E251E0D5CFC6
:1029D000672BE9F684E490E041E851E0CECF82E154
:1029E00090E04FE651E0C9CF80E189BD82E189BD29
:1029F00009B400FEFDCF8091D8008F7D8093D80070
:102A00008091E00082608093E0008091E00081FD91
:102A1000FCCF0895AF92BF92CF92DF92EF92FF92D8
:102A20001F93CF93DF937C01EB016A0149D1182FEB
:102A3000811122C0C114D10439F0F6018081918145
:102A4000C81BD90BE80EF91EA12CB12C2097A1F0C0
:102A50008091E80085FD20C08091E8008E7780930A
:102A6000E800C114D10499F0F601808191818A0DAA
:102A70009B1D8083918315E0812FDF91CF911F9162
:102A8000FF90EF90DF90CF90BF90AF90089518D156
:102A90008115F1F2182FF0CFF70181917F0180931A
:102AA000F10021978FEFA81AB80AD0CFFC018091CE
:102AB0000302909104028617970720F061157105B3
:102AC00061F0CB0140E0009771F441110CC080919E
:102AD000E80082FF36C080E008958091E8008E779C
:102AE0008093E800EECF2091FC012115B1F1253053
:102AF000B1F12091E80023FD2EC02091E80022FDD5
:102B0000E6CF2091E80020FFDECF4091F300209136
:102B1000F200342F009719F02830310558F041E0C9
:102B20002830310509F040E02091E8002E7720930D
:102B3000E800C9CF41914093F10001972F5F3F4FCB
:102B4000E9CF8091FC01811541F0853041F0809101
:102B5000E80083FFBCCF81E0089582E0089583E020
:102B60000895FC0180910302909104028617970753
:102B700020F06115710561F0CB0140E0009771F420
:102B800041110CC08091E80082FF37C080E00895B9
:102B90008091E8008E778093E800EECF2091FC01D1
:102BA0002115B9F12530B9F12091E80023FD2FC09E
:102BB0002091E80022FDE6CF2091E80020FFDECF43
:102BC0004091F3002091F200342F009719F0283043
:102BD000310558F041E02830310509F040E02091FE
:102BE000E8002E772093E800C9CF44914093F1008C
:102BF000319601972F5F3F4FE8CF8091FC018115FF
:102C000041F0853041F08091E80083FFBBCF81E047
:102C1000089582E0089583E00895982F973028F072
:102C20008F708093E90081E008959093E900242F4C
:102C3000762F50E0981731F07091EC002091ED0064
:102C40005091F00021FD02C09F5FE8CF3091EB0072
:102C50003E7F3093EB003091ED003D7F3093ED00EF
:102C60003091EB0031603093EB007093EC002093D7
:102C7000ED005093F0002091EE0027FDE5CF80E0BD
:102C800008958091FD0187FF13C08091E80082FFC5
:102C900006C08091E8008B778093E80008958091CA
:102CA000FC018111F2CF08958091FC018115D9F3C7
:102CB0008091E80080FFF8CF8091E8008E77ECCF1C
:102CC0002091E4003091E50095E6A9012091EC0007
:102CD000822F817020FF06C08091E80080FF06C02F
:102CE00080E008952091E80022FD1AC08091FC0147
:102CF000811589F0853089F08091EB0085FD0FC04A
:102D00002091E4003091E50042175307F9F2915009
:102D1000E1F684E0089582E0089583E0089581E07B
:102D200008955FD066D0E0EEF0E08081816080831E
:102D3000E8ED80818F77808319BCA7EDB0E08C919E
:102D40008E7F8C9380818F7E80831092FB0108950B
:102D5000CF93DF9346D04DD0C8EDD0E088818F77F8
:102D6000888388818068888388818F7D888319BC67
:102D70001092FC011092F8011092FA011092F901E0
:102D8000E0EEF0E080818B7F8083888181608883A2
:102D900042E060E080E041DFE1EEF0E080818E7FA4
:102DA0008083E2EE8081816080838081886080837F
:102DB000E0EE80818E7F8083888180618883DF91CF
:102DC000CF910895E8EDF0E080818F7E8083E7ED7C
:102DD00080818160808384E082BF81E08093FB01F9
:102DE000B7CFE8EDF0E080818E7F80831092E20023
:102DF00008951092DA001092E10008951F920F9248
:102E00000FB60F9211242F933F934F935F936F93BD
:102E10007F938F939F93AF93BF93EF93FF93809193
:102E2000E10082FF0AC08091E20082FF06C080912B
:102E3000E1008B7F8093E10028D28091DA0080FF4F
:102E400018C08091D80080FF14C08091DA008E7F76
:102E50008093DA008091D90080FF8FC080E189BD26
:102E600082E189BD09B400FEFDCF81E08093FC01C1
:102E7000E9DB8091E10080FF18C08091E20080FFD3
:102E800014C08091E2008E7F8093E2008091E20086
:102E900080618093E2008091D80080628093D800A6
:102EA00019BC85E08093FC01DFDB8091E10084FFA9
:102EB00028C08091E20084FF24C080E189BD82E1C6
:102EC00089BD09B400FEFDCF8091D8008F7D80932D
:102ED000D8008091E1008F7E8093E1008091E20034
:102EE0008F7E8093E2008091E20081608093E20017
:102EF0008091F801811509F445C084E08093FC01BC
:102F0000BADB8091E10083FF27C08091E20083FF5C
:102F100023C08091E100877F8093E10082E080936D
:102F2000FC011092F8018091E1008E7F8093E10016
:102F30008091E2008E7F8093E2008091E2008061C8
:102F40008093E20042E060E080E067DE8091F00084
:102F500088608093F00085DBFF91EF91BF91AF9186
:102F60009F918F917F916F915F914F913F912F91A1
:102F70000F900FBE0F901F90189519BC1092FC0176
:102F80006DDB77CF8091E30087FF02C083E0B6CF8F
:102F900081E0B4CF1F920F920FB60F9211241F93AE
:102FA0002F933F934F935F936F937F938F939F9351
:102FB000AF93BF93CF93DF93EF93FF93E9EEF0E0EE
:102FC00080811091EC008F7010FB112717F9182BDE
:102FD0001082C0EFD0E08881877F888378941CD0EE
:102FE000E9EEF0E010828881886088831F7010838A
:102FF000FF91EF91DF91CF91BF91AF919F918F9111
:103000007F916F915F914F913F912F911F910F9001
:103010000FBE0F901F901895AAE2B0E0E1E1F8E131
:10302000E4C28DEF91E0FC0101962091F100208334
:1030300022E085309207B9F740DB8091E80083FFFA
:1030400037C08091FD019091FE019A3088F5E92FFB
:10305000F0E0E756F44EB4C2803889F0823841F58A
:10306000809101028F70873018F58093E90080917C
:10307000EB0085FB882780F91092E90006C080915B
:10308000FA01880F9091F901892B9091E800977FC0
:103090009093E8008093F1001092F1008091E80095
:1030A0008E7722C0811115C08091FF01813001F11E
:1030B0008091E80083FF0AC08091E800877F8093B9
:1030C000E8008091EB0080628093EB00AA96E3E039
:1030D000A8C2823069F78091FF01811579F01092C2
:1030E000E9008091E800877F8093E800CADDE0CFA7
:1030F000933009F080E08093FA01F1CF80910102D2
:103100008F70282F2150263098F68093E900209167
:10311000EB0020FFE4CF933031F48091EB0080622C
:103120008093EB00DCCF9091EB0090619093EB00EB
:1031300021E001C0220F8A95EAF72093EA0010925D
:10314000EA008091EB008860EBCF8111B1CF8091D4
:10315000FF018F77182F8091E3008078812B809377
:10316000E3008091E800877F8093E8008ADD80910A
:10317000E80080FFFCCF8091E30080688093E3004B
:1031800083E0111101C082E08093FC0191CF80584F
:10319000823008F08DCF8091FF01909100028C3D2C
:1031A00023E0920789F583E08A838AE289834FB717
:1031B000F894DE01139620E03EE051E2E32FF0E0C8
:1031C00050935700849120FF03C082958F703F5F1A
:1031D0008F708A30B8F0895C8D931D922F5F2431F7
:1031E00069F74FBF8091E800877F8093E8006AE22B
:1031F00070E0CE0101965ADC8091E8008B778093D5
:10320000E80056CF805DE8CF609101027091020224
:103210009E012F5F3F4FA9019ADBBC01892B09F466
:1032200047CF9091E800977F9093E80089819A8139
:1032300098DCE2CF803809F03BCF8091E800877FAF
:103240008093E8008091F8018093F10027CF8111ED
:103250002FCF9091FF01923008F02ACF8091E800A3
:10326000877F8093E8009093F8010BDD8091F8014F
:10327000811529F084E08093FC0106DA19CF809152
:10328000E30087FDF7CF81E0F6CF0895CF938091DB
:10329000FC01811591F08091E900C091EC008F70E4
:1032A000C0FBCC27C7F9C82B1092E9008091E80039
:1032B00083FDB2DECF70C093E900CF9108952091D5
:1032C000FC01243041F5FC014489558966897789E0
:1032D000452B462B472BF9F081818F708093E900B5
:1032E0002091F3008091F200922F892B11F480E05D
:1032F00008959091E8008091E8008E778093E8002F
:1033000095FDF5CFDDDC811107C09091E8009E7737
:103310009093E800089582E008952091FC01243004
:1033200089F4FC014489558966897789452B462BA8
:10333000472B41F021812F702093E9002091E80074
:1033400020FDBDCF08952091FC012430E9F4FC015B
:103350004489558966897789452B462B472BA1F0EF
:1033600086818F708093E9008091E80082FF0CC015
:103370002091F3008091F200922F892B41F48091EB
:10338000E8008B778093E80080E090E0089520913A
:10339000F3008091F200922F08952091FC012430D7
:1033A00019F08FEF9FEF0895FC01448955896689D4
:1033B0007789452B462B472BA1F386818F7080930D
:1033C000E9008091E80082FFECCF2091F30080912A
:1033D000F200922F892B81F08091F10090E04091D2
:1033E000F3002091F200342F232B29F42091E800E0
:1033F0002B772093E80008958FEF9FEFF0CFA8E0A0
:10340000B0E0E4E0FAE1F0C08C018091FC0184308E
:1034100051F5F80184899589A689B789892B8A2B6A
:103420008B2B09F183858F708093E90088E0EBE2B4
:10343000F1E09E012F5F3F4FD90101900D928A95D7
:10344000E1F740E050E068E070E0C901E3DA40E015
:1034500050E062E070E0C8014296DCDA8091E8005A
:103460008E778093E8002896E4E0DAC00895089506
:10347000CF93DF93EC018091E80083FF13C0288194
:1034800080910102909102022817190659F4809147
:10349000FE01823209F474C040F4803209F43FC066
:1034A0008132A1F0DF91CF9108958332D9F78091D5
:1034B000FD018132B9F78091E800877F8093E800B1
:1034C000E0DB6091FF01CE01D2DFECCF8091FD0106
:1034D000813A41F78091E800877F8093E8008091EE
:1034E000E80080FFFCCF8C899D89AE89BF898093DD
:1034F000F1009093F100A093F100B093F100888D5A
:103500008093F100898D8093F1008A8D8093F10082
:103510008091E8008E778093E800B3DBC3CF809181
:10352000FD01813209F0BECF8091E800877F809352
:10353000E8008091E80082FF1EC03091F1002091E8
:10354000F1009091F1008091F1003C8B2D8B9E8BCE
:103550008F8B8091F100888F8091F100898F80910D
:10356000F1008A8F8091E8008B778093E80089DBF7
:10357000CE017CDF97CF8091FC018111DACF92CF11
:103580008091FD01813209F08DCF8091E800877F25
:103590008093E80076DB8091FF0190910002888B98
:1035A000998BCE0163DF7ECF992778E0880F991F32
:1035B000961708F0961B881F7A95C9F7809508958D
:1035C000EE0FFF1F0590F491E02D09942F923F928A
:1035D0004F925F926F927F928F929F92AF92BF9223
:1035E000CF92DF92EF92FF920F931F93CF93DF93CF
:1035F000CDB7DEB7CA1BDB0B0FB6F894DEBF0FBE2C
:10360000CDBF09942A88398848885F846E847D8478
:103610008C849B84AA84B984C884DF80EE80FD807A
:103620000C811B81AA81B981CE0FD11D0FB6F894F0
:10363000DEBF0FBECDBFED010895FB01DC0104C06C
:103640008D910190801921F441505040C8F7881B9A
:10365000990B0895FB01DC0102C001900D924150CD
:103660005040D8F70895F999FECF92BD81BDF89AE0
:10367000992780B50895A8E1B0E042E050E020C06D
:10368000262FF999FECF92BD81BDF89A019700B41B
:10369000021639F01FBA20BD0FB6F894FA9AF99ABB
:1036A0000FBE08950396272FECDFEADF252FE9DF11
:1036B000242FE7CF0196272FE4DFE2CFDC01CB01F7
:1036C000FC01F999FECF06C0F2BDE1BDF89A319632
:1036D00000B40D9241505040B8F70895F894FFCFD0
:1036E000051072100D10D70FDB0F1110DF0F151022
:1036F0002110EB0F6B10EF0F2510F30F29104E1058
:10370000F70F2D105510FD0F33103B10E30F19105C
:10371000E70F1D100110371045105E106910D10F12
:103720000910791004110A11F510FE10101116116C
:103730001C112C185218581852185818A518C718C8
:0637400058181A192719A0
:10374600B201000001000183100000010410000016
:1037560001820800000100000000000000000000D7
:1037660000F8110E13EA12EB12E912A12000000074
:1037760000020031336690919497F4F5F6F73435EC
:02378600C6007B
:00000001FF
